:10000000003A012015720000657800006578000054
:10001000657800006578000065780000657800006C
:10002000657800006578000065780000657800005C
:0C00300065780000657800007124000075
:10003C002DE9F84305460C46480413D4A00024D4FB
:10004C00A0075CD460057ED4200500F10681200752
:10005C0000F13B81600040F1F68005F0F7FC24F0E4
:10006C008044F0E008F0D4FADFF81C140F6D3FB1B7
:10007C00D7E90A1202F0E04201F00A01891849D0CE
:10008C0008F0DEFA24F48044DDE0BB48DFF8FC73B2
:10009C00016841F080010160B878012804D1042086
:1000AC0007F030F80020B87008F0B2FA06460420C9
:1000BC0008F00AFCDFF8D8130A68904219D12A7E9E
:1000CC00BAB1FA68AAB1DFF8C003806C002800F05E
:1000DC009780C16840F603020988914206D0C06837
:1000EC0040F604010088884240F08A8005F1140033
:1000FC0088E040F6C4120860C5E9042284E001F0EF
:10010C00F9FCDFF88403006C002840F09D8024F09B
:10011C00020498E0D7E90A65D7E90A12AA43B14369
:10012C00C7E90A1208F08CFAB8680028AAD056EA77
:10013C000500A7D0D7F808C03869B7F93010324697
:10014C002B46E0479EE708F063FA054607F06EFD84
:10015C00002800F0B780CC48876B002F00F0B280ED
:10016C00DFF828830420CB49002288F81800C64801
:10017C0007F083FC08F0A7FCC74808F039FAC74819
:10018C000068006B8047C8F810000125042088F82F
:10019C00025007F06DF8386990F82810C8F8040080
:1001AC00490703D5436A042100229847012005F032
:1001BC0053FED8F80400457603F0D0FFD8F80400BD
:1001CC0081680B461A465B684BB11E88A6F603067F
:1001DC00072EF7D805FA06F616F0830FF2D0537BEC
:1001EC0003F0F003013353730023FD6853602D8833
:1001FC00A5F60305012D00F28A80C8F810309FE0A7
:10020C0005F1100006F0C2FB304608F019FA07F0B1
:10021C0047F878B12E6A28466FF4807100224FF0AF
:10022C000073B0479848806B10B105F00FFC01E0EB
:10023C0044F00204EE692846002100224FF080634E
:10024C00B04724F0005434B1974821462830BDE81B
:10025C00F84308F005B9BDE8F8838C4EB078012856
:10026C0004D1042006F04EFF0020B07007F018F8FF
:10027C0038B170686FF4807100224FF00073056A1A
:10028C00A847306950B185480068006B80473269D7
:10029C007168801A000BC860002030617A4D81496A
:1002AC000022284607F0E9FB02203076286C20B1AA
:1002BC007D480221283008F0D3F805F0C7FB24F460
:1002CC000064C0E708F0FFFB41E008F0A1F9054627
:1002DC0007F0ACFCA0B1DFF8B48198F8000000077F
:1002EC000ED498F9000000280AD4684603F0DAFF0F
:1002FC0008B1009820B1DFF8B49199F8610048B3C7
:10030C0008F0E1FB05F0A2FB24F008049BE7034690
:10031C0033F8385FA5B190F8445090F8456005F07B
:10032C00F00580F8445006F0F005013580F8455092
:10033C0000255360C5634587507B00F0F000507377
:10034C0057480022C2610160012007F0C1FD24F46E
:10035C00806478E700260127602E0FD009EB060099
:10036C00817A31B18772407A07FA00F0C0B206F098
:10037C00E3FE2036F0E700BFCC210840032088F8CC
:10038C001800454808F034F908F09DFB444F3E4DE9
:10039C000022786900207861F968F86028464449A1
:1003AC0007F06BFB3D480068006B8047D8F80C10D9
:1003BC00D8F82020411A02EB1130B0EB113F38BFB6
:1003CC004FF0FF3098F82410C8F8200021B1D8F86D
:1003DC000810B0EBC12F20D907F08AFDB8B140F658
:1003EC000900414621F83C0F002048804A7B02F06E
:1003FC00F00201324A730A7B02F0F0020A73486081
:10040C00F8613960B8F83E0010F4406FFAD0002063
:10041C00C8F82000012088F8240006F0CFF8254801
:10042C00002101600220002107F052FD022006F09D
:10043C0069FE102003F03CFE98F8010020B9D8F8B2
:10044C000400503008F04CF91B48807810B90D208E
:10045C0003F02EFE98F8250028B1002088F825001E
:10046C00052006F04FFE002088F818001348C8F845
:10047C001C000220B5F85610B5F85420914208BF64
:10048C00072005F013F93DE7FC130020C8120020EB
:10049C0040160020157C0000400E00208C0100103E
:1004AC00001004402D2F000098130020200D002078
:1004BC00BD5A000000000460D8920000212B0000FF
:1004CC002DE9F04F8DB0044600209A4616460F4693
:1004DC00CDE90B00CDE909008A488568804604F017
:1004EC0045FD1C2803D004F041FD1B281BD130888E
:1004FC0040F60201884218BFB0F5C15F03D1F07B12
:10050C00022810D93EE043F6070188420BD196F839
:10051C002400032807D330697B4940F0806020F029
:10052C00604088422ED100206FB366B3387825FA2C
:10053C0000F0C00726D03046002108F0CAFA7348F4
:10054C00C4E90176006880B109A800900CA90BAA37
:10055C000AAB304602F032F80B980B214FF6FF72C3
:10056C00502307F055FCFF280CD008F051F8684FC9
:10057C0006467878012802D840B1012070E0304658
:10058C0008F05EF800200DB0BDE8F08F01F08AFF96
:10059C0060480DF10409016841F0020101605E48F8
:1005AC00C8F80000484607F0F3FCDFF870B15D496D
:1005BC004A469BF801009BF800500390584828309D
:1005CC0004F061FB584859494A4604F05CFB484624
:1005DC0007F038FDDFF85881564A19214B46029531
:1005EC00404605F00DFC544A08F11C001A214B46FC
:1005FC0005F006FC5148524908F02CFA5148524972
:10060C0008F028FA5148006810F4402F06D0504AE0
:10061C0007F128000421002307F0D2FA9BF802000E
:10062C0010B10D2003F03CFC08F1400007F0ADFECA
:10063C0008F1380007F0A9FE464900200722387659
:10064C00B8843862386181F860200521C7E902104E
:10065C004149F96138700420002107F039FC7878A1
:10066C002F4941F8204001307870304607F0E8FF00
:10067C00BAF1000F02D0DAF8000008E00DF1040A1C
:10068C0036492022504608F033FA4FF0FF30DAF8A2
:10069C000420BAF81010DAE90635002AB2FA82F60C
:1006AC0008BF40F6C41220600120760961832563DF
:1006BC0060762B4826764FF4FA766261C4E90362C1
:1006CC00C4E90700C4E90903DAF80C0000B12062A0
:1006DC00DAF8140000B16062DAF8080000B1E061E9
:1006EC0004F13800C82108F0C5F904F150000021CC
:1006FC0006F0D0FF1B4904F1B80008F0ABF9204616
:10070C0041E700BFCC2108400F0000051416002063
:10071C00C812002000200940110000E0D89200000F
:10072C0098130020F9800000C80E0020CD3B00007B
:10073C00FC130020BD5A000035530000840E00202D
:10074C00F17B0000400E0020A5800000B44F00504B
:10075C00C5620000200D0020212B00002C9200000F
:10076C0007290000D98A000080B588B007900020C6
:10077C000590049041F25440C2F20000806806904B
:10078C0008F08FF8069908700798006A06990861B6
:10079C000798406A069948610798806A06998861AB
:1007AC000798C06A0699C86107980068069908629C
:1007BC00079840680699486207988068069988628D
:1007CC000798C0680699C86207980069069908637B
:1007DC000798406906994863079880690699886369
:1007EC000798C0690699C8630798006B0699086456
:1007FC0007984030069948640798406B06998864BE
:10080C000798806B0699C8640798C06B06990865B1
:10081C00069800780146019103283AD80199DFE83F
:10082C0001F01C0F022C08F0C7F80699486008F07C
:10083C00C3F8C06A059008F0BFF8806A049029E0FC
:10084C0008F0A8F80699486041F25440C2F2000042
:10085C0041690591C06904901CE0069890F850001D
:10086C0007F0ACF80699486041F25440C2F200001F
:10087C0041690591C06904900CE00699002048601C
:10088C0041F25440C2F2000041690591C0690490E4
:10089C0000E0FFE704980699C860059806998860FF
:1008AC0041F25440C2F20000C068C8B1FFE705989D
:1008BC00039041F25440C2F20000C0680290FFE77E
:1008CC00049860B1FFE70398411C039100780299EA
:1008DC004A1C02920870049801380490F0E7FFE774
:1008EC004EF60450CEF200000068069948654EF6AC
:1008FC002850CEF200000078069988654EF62950F3
:10090C00CEF2000000780699C8654EF62A50CEF259
:10091C0000000088069908664EF62C50CEF20000B6
:10092C000068069948664EF63050CEF2000000681A
:10093C00069988664EF63450CEF20000006806998F
:10094C00C8664EF63850CEF200000068069908676B
:10095C004EF63C50CEF2000000680699486708B08D
:10096C0080BD2DE9FC47D0E900588246D8F800003C
:10097C00D0F8409019F4F06FC0F8449035D05FEA8D
:10098C00495117D5D5E91401411A504606F014FE09
:10099C00D8F800008169C90605D401688DF80710E4
:1009AC009DF80710F6E7296801312960A97B09B980
:1009BC000121A973696C40684FF0004600F00F04E8
:1009CC0004EA0100B0FA80F126FA01F1014005D0E9
:1009DC002F6C1FB12A68AB6C5046B847B4FA84F040
:1009EC0026FA00F020404042A863D5F85801D8F808
:1009FC003C1009F0400740680068D0F8042511400D
:100A0C00394347D0DAE90064504604F0EFFED7B121
:100A1C00F07C90B90BE0316F69B10068B16EB26FC8
:100A2C008854306FB16F01310138B167306720687D
:100A3C008169C906EFD5F07C28B1D6E91401411AB9
:100A4C00504606F0B9FD96F86400E0B13079022802
:100A5C0019D017B1B179012901D0316F99B900249E
:100A6C00B16E0128346786F86440B46607D1B36C64
:100A7C00B26FD6F8CC6050460094B04703E006F154
:100A8C007C0007F02DFE504602F0C8FAD5F858014C
:100A9C004068006800F204500068D8F8381008422A
:100AAC0028D0D5F8F80028B3DAE90076504604F0DF
:100ABC002BF8504602F064FF7879012812D1D7F850
:100ACC00F40078B997F8E80060B1002087F8E800E6
:100ADC00BB6CD7F8EC10D7F8FC20D7F8504100903D
:100AEC005046A047D7F8F80020B93068816B41F424
:100AFC00006181635FEA095023D5D8F80000816951
:100B0C000907FCD4016B21F480710163297A91B13E
:100B1C000020287295F84400800606D52C6C24B170
:100B2C00AB6C504620210022A0475046012106F014
:100B3C00C6FDD8F80000816B21F4006181636879EF
:100B4C0008B1BDE8FC8705F58070BDE8FC4707F0EF
:100B5C00C7BD70472DE9FF41DFF8BC810020039031
:100B6C000290D8F83840B4B3D8F84C0010B9D8F883
:100B7C00480070B3D8F8480060B12069D8F8481024
:100B8C000969814206D194F83300C00602D5D8F821
:100B9C004C0090B1002702A887F0010103AA03F0D2
:100BAC0063FE0546FFB9F5B10299002900F09D805E
:100BBC005A4807F08BFB002714E0D8F84800C068AF
:100BCC0040880028F9D0D8F84800C068408801282F
:100BDC00F3D00127DFE752480221283007F040FC10
:100BEC000027002500242CB34E48466816B3029803
:100BFC00B0FA80F04009284001281BD1D8F84800F1
:100C0C00D8F84C10039A87F00103CDE9003208F1B3
:100C1C00380208F14003B047012868D0022809D1F6
:100C2C00D8F84800012201230069D8F84810B1F91E
:100C3C00301065E0002C204618BF012038400128F8
:100C4C0051D1394821694068814203D034484FF46E
:100C5C00806145E00298002818BF01202840012837
:100C6C0006D1D8F8480018B9D8F84C0000284DD057
:100C7C00082007F02DFA94F833004C25C00608F133
:100C8C00380058BF482507F02AF848F80500274BCC
:100C9C00D4E90601C2439A60DA681043D860C843AD
:100CAC00186058680843214658600820E56807F02A
:100CBC000FF9284607F09CF8288843F60601411ADC
:100CCC00022906D3B0F5C15F03D040F60201884279
:100CDC0003D10120294607F0FBF811484FF0804161
:100CEC00283007F0BDFBBDE8FF8100277BE70398A8
:100CFC00002818BF044601220023B4F930102069E3
:100D0C000092002201F078F9BDE8FF81082006F07E
:100D1C0013FABDE8FF8100BFFC130020840E0020F5
:100D2C00981300201C160020C81200200810044044
:100D3C0080B5A0B01F9016A8089007F0FBFD08998D
:100D4C004FF461201C900020099000F003FC41F24C
:100D5C00C001C2F20001086006200A9046F20001B0
:100D6C00C2F2000107F0A6FE09990A9807F048FCA8
:100D7C006946CA20086041F2B400C2F2000040F299
:100D8C000001C2F200014FF45472042302F035FA50
:100D9C0010B1FFE7FFE7FEE741F27051C2F200012C
:100DAC00059141F2B400C2F20000C861C87B40F06A
:100DBC000100C873C87B40F00200C873C8200875D6
:100DCC00887B40F002008873887B40F004008873B5
:100DDC000EA8049007F09CFD049B40F68010C2F214
:100DEC00000041F2D051C2F2000141F2F842C2F2CD
:100DFC000002FFF765FB014641F2BC00C2F20000A5
:100E0C000790016000686946002306934B600B60F5
:100E1C0041F29451C2F200011A4602F081FC069A8A
:100E2C0041F29800C2F20000114605F056FC0599FB
:100E3C00069A07980068EC46CCF804204FF400039F
:100E4C00CCF8003047F24923C0F2000302F068FCF2
:100E5C00FFE741F29800C2F2000007F0B7F807F084
:100E6C0051FD014640F61C50C2F200000160C82141
:100E7C008DF83710006808300C900C989DF83710DE
:100E8C00405C8DF82F009DF8371040F65830C2F2B8
:100E9C000000039000F8011B0C999DF8372007F017
:100EAC0027FE03999DF82F009DF837200A445070B7
:100EBC009DF8370001440020887041F2C000C2F256
:100ECC000000006880B1FFE741F2C000C2F20000F0
:100EDC0000689DF83710CA1C40F65831C2F2000168
:100EEC00002307F0A7FCFFE707F098F9B1E786B0FD
:100EFC00DDF820C0DDF81CC0DDF818C005900491A9
:100F0C00039202930598019004988008009006982B
:100F1C000199009A013A009241F822000298019935
:100F2C00009A013A009241F8220003980199009A24
:100F3C00013A009241F8220008980199009A013A6E
:100F4C00009241F8220007980199009A013A009208
:100F5C0041F8220001990098421E009248F2393063
:100F6C00C0F2000041F8220001990098421E009244
:100F7C004FF0FF3041F822000199009A013A00929B
:100F8C0041F822000199009A013A009241F822009E
:100F9C000199009A013A009241F822000199009AB5
:100FAC00013A009241F822000199009A013A00920C
:100FBC0041F822000199009A013A009241F822006E
:100FCC000199009A013A009241F822000199009A85
:100FDC00013A009241F822000199009A013A0092DC
:100FEC0041F822000199009A013A009241F822003E
:100FFC000199009A013A009241F822000199009A55
:10100C00013A009241F822000199009A013A0092AB
:10101C0041F822000199009A013A009241F822000D
:10102C000199009A013A009241F822000199009A24
:10103C00013A009241F822000199009A013A00927B
:10104C0041F822000199009A013A009241F82200DD
:10105C000199009A013A009241F822000199009AF4
:10106C00013A009241F822000199009A013A00924B
:10107C0041F822000199009A013A009241F82200AD
:10108C000199009A013A009241F8220001980099C6
:10109C0000EB810006B0704780B58EB0DDF840C023
:1010AC000C900B910A92099307F00CFA019041F203
:1010BC00F050C2F20000806830B1FFE7019807F0F1
:1010CC00C7FB00200D90B0E00C9841F2F051C2F239
:1010DC0000018860019807F0BBFB099830B9FFE765
:1010EC0049F26C20C0F200000990FFE70B980C99B4
:1010FC00C8600A980C99C861099840680C99886175
:10110C000C994FF4803048620C99002008620C99BD
:10111C00C86488640998007B01280BD1FFE7099803
:10112C0080680C994861099880680C9900224A647F
:10113C00086418E00998816844F24022C0F20F025A
:10114C000023184607F0A0F90A460C994A64086473
:10115C000C99086C48610C98406C18B1FFE70020A2
:10116C000D9062E0FFE709980078022806D1FFE7AE
:10117C000C99486900224A65086504E00C99002026
:10118C0048650865FFE70C9948690022CA658865BF
:10119C0002A806F0C7FF0C9803900998007890B944
:1011AC00FFE70C98283041F2FC51C2F200016A466C
:1011BC00116044F68B52C0F20002142102AB04F011
:1011CC0077FE089011E00C98283041F2FC51C2F2E5
:1011DC0000016A46116048F21512C0F20002142197
:1011EC0002AB04F065FE0890FFE70C9806F090FE49
:1011FC000C98007C20B9FFE70C9804F02BFBFFE760
:10120C00089850B1FFE70C9941F2F050C2F200007F
:10121C0005F0E0FF0C980D9007E041F2F051C2F29E
:10122C000001002088600D90FFE70D980EB080BD86
:10123C00B0B560480021604C016094F83A01032875
:10124C0012D002282ED0012840F0AF8094F8400133
:10125C0004F030F8002084F840015948817B0220CA
:10126C00002908BF06209EE054480168B1F5C06013
:10127C00C4F82C01B8BFC1F5C060D4F81011002916
:10128C0000D5494288422ADDD4F8140106F050FCFE
:10129C00D4F8180106F05EFCD4F8280106F07EFCA8
:1012AC0001201DE04548056807F0F2F9C4F8140167
:1012BC0007F0F6F9C4F8180107F0FAF9B5F5C061B2
:1012CC00C4F82801C4F8101109D094F830215AB18F
:1012DC00D4F81401D4F82021D4F82C110AE0002001
:1012EC0084F8300106205EE0C4F82401D4E94502FC
:1012FC00C4F82C110223C4F81C01002901EB410194
:10130C0048BF6FF001031944042391FBF3F111441E
:10131C000029C4F820110FDD1F2931D3D4F8242162
:10132C002AB33E28A8BF3E2001302929A8BF292175
:10133C00C4F81C010B3909E0D4F82421032A09D183
:10134C0011F1140FD8BF6FF013011531C4F820112F
:10135C00002113E00128D8BF0120013811F10A0F38
:10136C00D8BF6FF00901C4F81C010B3103E033291D
:10137C00A8BF33211539C4F820110321C4F8241156
:10138C0006F0D6FB012006F0F7FBD4F8200106F09E
:10139C00E1FBD4F8240106F001FCA5F2FF51042076
:1013AC00032938BF0620C4F83C01BDE8B04001F069
:1013BC00A5BA00BF3C500C40D810002008400C408F
:1013CC00A092000080B58AB0089007910692059310
:1013DC0006980068089908610698C06808994861E1
:1013EC000698806940B9FFE741F2D400C2F20000D0
:1013FC0000680899086304E00698806908990863F6
:10140C00FFE70698406920B9FFE74FF4007002909F
:10141C0003E0069840690290FFE707F071FB049027
:10142C000698006988B3FFE7049808B3FFE70698AD
:10143C0000690190019904980844013801900198C1
:10144C000499494208400190019807F0EDFA089977
:10145C00C8620298019A06990969891A0844089980
:10146C0088620899886A049A52421040886207E0A0
:10147C00069800690899C862029808998862FFE783
:10148C0008994FF0FF30086320E0049848B1FFE75B
:10149C000298049908440138494208400899886226
:1014AC0003E0029808998862FFE70898816A006B4C
:1014BC00049A059B03F0A4FA0899C8620898C06ABC
:1014CC0018B9FFE70120099040E0FFE70798089959
:1014DC00486306984068089988630698806808995C
:1014EC00C8630698C06908990864069890F82000AB
:1014FC00089900F0010081F84800089890F848001D
:10150C00C00740B1FFE741F29041C2F200014869C7
:10151C0001304861FFE70899002048650898059953
:10152C0002F0ACFB0390039820B1FFE70398023064
:10153C0009900BE0089800F1080141F29040C2F2CA
:10154C00000005F047FE00200990FFE709980AB05B
:10155C0080BD7047FEB504465A480078A04213D9A6
:10156C0008780D46012801D1686868B168780128AF
:10157C0001D1A86840B1544F57F8346007F048F8CF
:10158C00F17921B107F05CF800242046FEBD07EB91
:10159C00C40401216768F17107F052F8002005F1CD
:1015AC00040C7074F081B06030602988B180A98B14
:1015BC00C6E93D00C6E90E0086F86400B186297DB7
:1015CC002B69B1719CE80610C6F85021BCF1000FD4
:1015DC00C6E910C34FF0FF32C6F8CC10A969C6E9B2
:1015EC003B203163A97F86F83610296AC6E91A00B8
:1015FC00C6E91C00B16486F8E800C6F8580102D1AF
:10160C003249C6E9101097F8400002F049FCD7E9BE
:10161C00031206F14C0007F05BF8D7E9051206F14E
:10162C00D00007F055F82A4938680968C968884716
:10163C007A6C97F8240046F2020102F0D9FB254D92
:10164C00BA6C97F82000294602F0D2FBF869012801
:10165C000CD1FA6C97F82800294602F0C9FB3A6DB8
:10166C0097F82C0046F2020102F0C2FB04F052FA89
:10167C00C6F85801204601F0D1FA174A06F5AE70AB
:10168C000421234606F09CFA6D46284606F0DAFC47
:10169C00387A7968114A2B460094019006F11400AF
:1016AC0004F0AEFB06F17C00002105F0F3FF06F51B
:1016BC008070002105F0EEFF3868D7E90C1210603D
:1016CC00486062E76B920000109300001F2B000033
:1016DC00D001001002600020818400006F0900001E
:1016EC002DE9F84FD0E900B79846164689460546CD
:1016FC0013B10020C8F800008EB106F0B1FC824690
:10170C0006F086FF04469BF8070060B19BF8E800E2
:10171C0078B107F0D5F96FF00800BDE8F88F6FF0DD
:10172C000900BDE8F88F07F0CBF96FF00E00BDE8AB
:10173C00F88F00200121CBE93B96CBF8F460CBF875
:10174C00FC008BF8E810CBF83C008BF80D008BF804
:10175C000B000BF580700021009005F082FC3846E0
:10176C0007F0E2F8BAF1000F02D19BF8050070B354
:10177C00284602F005F907F0A3F99BF8050068B9B3
:10178C000A99009805F06DFC10B101208BF80D0042
:10179C00284603F0B9F900208BF8E800B8F1000FE7
:1017AC001CBFDBF8FC00C8F800009BF80B0030B144
:1017BC0000208BF80B006FF00D00BDE8F88F9BF844
:1017CC000D00002818BF6FF00C00BDE8F88F07F073
:1017DC0077F9D5E9007497F84400C00615D5D7F809
:1017EC0040C0BB6C284610210022E0470DE0D7F822
:1017FC00FC00314609EB0002204605F0B7FCD7F897
:10180C00FC10361A0144C7F8FC10002EEFD120460C
:10181C0006F07EFF0028FAD0204607F07FF897F8F4
:10182C004400800605D53C6CBB6C28462021002268
:10183C00A0470020B8F1000F87F8E800C5D0D7F812
:10184C00FC00C8F800000020BDE8F88F2DE9F04737
:10185C00012816D1DFF830A1DAF83401012813D1B0
:10186C000220CAF8340106F003FB0120012405F024
:10187C0047FD60B1CAF8344106F00AFB4FF0FF3463
:10188C007FE06FF001047CE06FF0040479E09AF8DB
:10189C005A419AF859119AF85801002C18BF012492
:1018AC00002918BF0234002818BF0434012007F0A7
:1018BC000BF8013818BF01209AF83811B1FA81F1F0
:1018CC00490910EA010902D1002001F0C1FEDAF841
:1018DC0008002E4D10F0010807D12D4F286A8168A1
:1018EC00384688470428F9D00646404607F06FF87A
:1018FC00B8F1000F08D1012E04D1286A01214268E9
:10190C002348904706F0BCFE28684169204688476A
:10191C009AF8540118B14FF4806006F0DBFF9AF886
:10192C00530118B14FF4816006F0D4FF194801211E
:10193C00016003200021CAF83401174801602046D9
:10194C0004F0E0FF0128FAD1144E3068042005F0B1
:10195C00D7FC044612480125B9F1000F0560306828
:10196C0002D1012001F074FE07F070F8082005F098
:10197C00C7FC0443CAF8345118BF4FF0FF3406F0CB
:10198C0087FA2046BDE8F087D8100020B801001077
:10199C0000400340282008600C2008402C200940FF
:1019AC000C40094080B59EB01C901B911A92199363
:1019BC00002006900C9009A8079006F04BF80DA893
:1019CC0006F06AF9069A079B1C9802605021104693
:1019DC0003F016F80C900C9818B9FFE70C201D902A
:1019EC0084E049F26430C0F20000006841F2AC516E
:1019FC00C2F2000188601B9830B9FFE741F2AC508D
:101A0C00C2F20000059002E01B980590FFE70598D4
:101A1C0008900898006810900898406811900899F0
:101A2C0048688968049120B9FFE70898C06803905A
:101A3C0002E000200390FFE70498039908441290F9
:101A4C001A980E900C980F90199814904FF0FF3034
:101A5C00109008980069002818BF01200C990863A1
:101A6C001A980C9948630C9800210191C1620C984A
:101A7C0081630C98C163089800680C9A90600C986C
:101A8C0041640C98483006F0A1FC16A8029006F0B0
:101A9C0075FD0199029A01208DF858000C981030B0
:101AAC0005F0CCFD47F2B540C0F200000DA909AA23
:101ABC0004F012FD0C99C8600C98C06830B9FFE7AF
:101ACC000C9805F0DAFC0C201D900FE01A980C997C
:101ADC00C96848630C981C9908600C98C0680899F0
:101AEC00096800F025FB00201D90FFE71D981EB033
:101AFC0080BD70472DE9F047DFF83491D9F840A04C
:101B0C00BAF1000F00F088800AF10C020820FF21C6
:101B1C0051FA80F0C3B21B1A18BF012312686AB1C4
:101B2C0063B11388A3F60303012B01D90432EFE749
:101B3C00DAF8100092E8FA003830FAC0DAF8082027
:101B4C000025DAE90A10CAE90A55B2B110F0E244EC
:101B5C000CD021F00F0220F0E2434FF0000852EAC3
:101B6C00030005D006F05FFEB04701E0884604464E
:101B7C0006F059FE42462346B04706F049FD04469E
:101B8C00B9F8560001306FF31F30A9F856004FF624
:101B9C00FD70AAF8300009F140008AF8335006F0C5
:101BAC009EF8204606F04CFDB9F85600B9F85410D2
:101BBC00884231D11F48204940680D6830B190F8F7
:101BCC00FC200720002A08BF052000E005204C68F7
:101BDC0003F06CFD55B195F8FC00002100284FF086
:101BEC00000008BF286885F8FC1000E0002044B114
:101BFC0094F8FC200021002502B9256884F8FC101B
:101C0C0000E00025A84288BF0546681C04D02DB909
:101C1C00BDE8F04706F040BABDE8F08706F047FE95
:101C2C00B5FBF0F10548BDE8F04706F04FBB00BF2F
:101C3C00FC130020C812002098130020400E002036
:101C4C0080B588B001208DF81F0006F0FBFE06F071
:101C5C004DFE06F051FE0690069800F00C000C2884
:101C6C0007D1FFE700BF00BF06F035FF00BF00BF84
:101C7C0081E09DF818004007002842D4FFE704F0EB
:101C8C00CCFF0590059849F25C31C0F2000109685F
:101C9C0048430490049802900121084606F0EEF99E
:101CAC000146029888422BD9FFE749F25C30C0F21A
:101CBC0000000168F020B0FBF1F10598401A059086
:101CCC0041F2D800C2F200000C30019006F08EFEFA
:101CDC00059906F04DFD019806F088FE06F03EFAD7
:101CEC0000BF00BF0120FFF7B1FD00BF00BF01988E
:101CFC0006F07CFE06F0BAFD00208DF81F00FFE711
:101D0C00FFE79DF81F00C007A0B3FFE700BF00BFAF
:101D1C009DF818000007002826D4FFE7FFE740F2E3
:101D2C00D810C1F200000068816844F20000C4F2CF
:101D3C00030088470390FFE703980428EFD0FFE7E0
:101D4C009DF81800C006002803D4FFE7039820B9BB
:101D5C00FFE7012006F0C3FE03E0002006F0BFFE03
:101D6C00FFE706F0CDFC02E006F0B5FEFFE700BF92
:101D7C0000BFFFE7FFE706F069FE08B080BD80B545
:101D8C008EB00C900B910A920A98019001980C99C4
:101D9C00896A0139084204D0FFE70C98806A0190E7
:101DAC00FFE70B98059005980C99896A0139084052
:101DBC00029040B1FFE705980C99896A029A891A3A
:101DCC0008440590FFE705980B99884203D2FFE77A
:101DDC0000200D906FE00C98203009900998006855
:101DEC000790FFE70798002862D0FFE70798406844
:101DFC00069007980199013908400290029828B181
:101E0C00FFE701980299401A0290FFE7069805999E
:101E1C00029A1144884244D3FFE707980299084478
:101E2C0006F002FE039006980599401A0299401A92
:101E3C0004900298C0B1FFE7029807994860049893
:101E4C0088B1FFE703980599084406F0EDFD08906A
:101E5C0007980068089908600498089948600898E1
:101E6C0007990860FFE719E0049888B1FFE7039829
:101E7C000599084406F0D8FD089007980068089961
:101E8C00086004980899486008980999086004E06B
:101E9C000798006809990860FFE7FFE703980D9021
:101EAC0009E007980990079800680790FFE799E701
:101EBC0000200D90FFE70D980EB080BD80B58CB062
:101ECC000B900A9106F0FEFA01900120009006F0AA
:101EDC004FF801460098049141F23031C2F20001F2
:101EEC0081F85C00002081F85D00486D0890049832
:101EFC00089A801A069008988A68801A07900498A5
:101F0C008968401A03900798039988420BD9FFE718
:101F1C0041F23031C2F20001002081F85C000198DE
:101F2C0006F096FC66E0019806F092FC0020099001
:101F3C00FFE70698099988420ED3FFE7089809999C
:101F4C000844089009990698401A069008990120AF
:101F5C0001F076FD0990ECE706F0B4FA019041F23D
:101F6C003030C2F2000090F85D00C00730B1FFE7DE
:101F7C000899002001F064FD0990FFE709980130F1
:101F8C0058B9FFE741F23030C2F20000806D059085
:101F9C00089805990844029018E009980699401A87
:101FAC000590059841F23031C2F20001896D8842EA
:101FBC0007D9FFE741F23030C2F20000806D059086
:101FCC00FFE70898059908440290FFE705980299E5
:101FDC0005F0DAFE41F23031C2F20001012081F845
:101FEC005E00002081F85C0008988860019806F07B
:101FFC002FFCFFE70CB080BD2DE9F84F4FF00054DB
:10200C00002A994616460F46804618BF4FF080446A
:10201C004D1C06F0FDFA824635B140463946002289
:10202C0004F092FC07460FE03C48816C11B1096941
:10203C00414506D0C16C11B10969414503D0876B8C
:10204C0002E0876C00E0C76C37B197F93300B0F150
:10205C00FF3F03DD04245BE0032459E0DFF8BCB050
:10206C000A9DDBF84800874218D0DBF84C00874209
:10207C0029D0404639464A462B4602F039FC002806
:10208C00E8D02748017E012941D0007E04283ED0AB
:10209C0024482549283006F0E3F938E0DBF84800FD
:1020AC000022234605F0C4FB06F007FC1F48002E57
:1020BC0018BF00F5803005F09BFEF5B1DBF8480049
:1020CC0006F080FC0CE006F0F8FB1848002E00F13E
:1020DC0000501CBF0120C2F2024005F089FE65B120
:1020EC00DBF84C0006F06EFC38690E49086291F87A
:1020FC00240040F0010081F82400B9F1000F06D053
:10210C00DBF83810404601222B4602F0F1FB832409
:10211C00504606F095FA2046BDE8F88FFC130020D7
:10212C00C812002098130020020000400100010496
:10213C0080B588B00690059106F048F8029006F03C
:10214C00C1F9019006984069049004980599884259
:10215C0009D1FFE7019806F07BFB029804F05AFCCA
:10216C00049807907BE00598B0F1FF3F09DCFFE78E
:10217C000020039041F29040C2F200002C300090FD
:10218C000DE0059901208840039041F29040C2F285
:10219C000000006A059900EBC1000090FFE706986B
:1021AC0090F82000012836D1FFE7069805F0E4FFEF
:1021BC000698C06C06F015F950B1FFE706988269D5
:1021CC0041F29041C2F20001C8689043C860FFE739
:1021DC0041F29040C2F200008069069988420CD10D
:1021EC00FFE7009841F29041C2F20001C8610098EB
:1021FC000068069905F06CFB04E00098069905F060
:10220C0053FBFFE7039A41F29041C2F20001C86808
:10221C001043C860FFE70598069948610398069932
:10222C00886100980699C8640598B0F1FF3F07DCF7
:10223C00FFE741F29041C2F200010020C861FFE7C4
:10224C0041F29041C2F2000101200874019806F09D
:10225C00FFFA029804F0DEFB04980790FFE707985A
:10226C0008B080BD2DE9F0410546880058BFBDE897
:10227C00F0810020002403F0EFFD3D493D483E4F26
:10228C00CC61086040F60A008846B887FC8797F84E
:10229C00480000F0F00087F848003C6497F84900CB
:1022AC0000F0F000013087F84900284601F056FF95
:1022BC00AC68012021460E46496849B10A88A2F64D
:1022CC000302072AF7D800FA02F212F0830FF2D0B9
:1022DC00707B00F0F000707307F13C0070602748D1
:1022EC00806B28B1C0680088A0F6030002281AD3BE
:1022FC00284630F8381FB1B10021E963698738648A
:10230C0095F8440095F8451000F0F00085F844006D
:10231C0001F0F000013085F8450097F8490000F015
:10232C00F00087F8490006F091F81548F86197F825
:10233C00250030B105F068FA0028FBD004F062F9F2
:10234C000BE0012006F0C0FA012806D0707B00F0EB
:10235C00F000013070730B48F86100202146C8F87A
:10236C001C00C8F800400120BDE8F04105F0B0BDEC
:10237C000010044001010E04C8120020FC130020C0
:10238C003D000000016400001EF0040F14BFEFF3C9
:10239C00098169468869A1F1480214BF82F3098852
:1023AC00954621ED100BF1EE102A41F8082DEFF3B4
:1023BC00118102B400B5DFF8D8E0F047374A126853
:1023CC00116801EA000010605DF804EB1EF0080FC4
:1023DC0009D101BC80F311885DF8080BE1EE100AFD
:1023EC00BDEC100B704704BC1EF0040F14BFEFF3D0
:1023FC0009816946A1F1200114BF81F309888D463A
:10240C004A604FF08070C86125488861234B1B6877
:10241C001868086040F201101860704702B401B4EB
:10242C00EFF3148100291CBF002282F3148802B43C
:10243C0002B4DFF860E0F04701BC01BC00281CBF0F
:10244C00022181F3148801BCDFF84CE0F0470F48FF
:10245C004FF08051016001BC80F3118800BF00BFB8
:10246C00FFF7FEBF1EF0040F14BFEFF3098169469E
:10247C0001F1200151F8080BE1EE100AB1EC100B40
:10248C0014BF81F309888D46704700BF04ED00E04E
:10249C00834E00000B8500001D8500005493000046
:1024AC00282400002DE9FF413B4E96F842010028FC
:1024BC006AD1012086F8420106F012FA374F86F8ED
:1024CC007001374D7868C6F86C01387B86F841018D
:1024DC00A86810F4402F13D1386988B1286864219A
:1024EC00C0F3066000FB01F406F0E1F9B4FBF0F276
:1024FC002C4906F19400002303F0CCFB06F0B8F84D
:10250C0001AC204605F036FF2749A846002506F108
:10251C000C00002206F079F9204605F02BFF234928
:10252C0006F15000082206F070F9214A06F1D80095
:10253C003221002303F064FC1E4C1F4A06F1F40008
:10254C002C2100232560454603F05AFCD8F80800DE
:10255C00797BC0F3815021B1032804BF012186F897
:10256C003911032803D040F00200022810D1206852
:10257C0040F040002060022004F07AFE68684007BA
:10258C0002D4002004F074FE002004B0BDE8F081F9
:10259C0004F0DCFCF2E700BFD8100020A092000091
:1025AC00AC4F00504F880000AF420000A96A0000F9
:1025BC0025570000902208403D1200002DE9F843F9
:1025CC001D46434BDDF8208043F606061C68038845
:1025DC0014F0007411D0B34227D0B3F5C15F33D0DF
:1025EC0040F60206B3423ED100F112030B60416982
:1025FC00116081692960C1692EE0B3420AD0B3F53C
:10260C00C15F03D040F60206B34203D100F11203BE
:10261C00143002E000F11A031C300B6000681060EB
:10262C0000202860C8F800004BE000F11A034FF0BE
:10263C0000090B60C1691160016A2960416AC8F820
:10264C00001000F118011CE000F112030B6041694D
:10265C001160416A2960816AC8F8001000F110010C
:10266C0090F80F900DE000F11A030B60C169116036
:10267C00816A2960C16AC8F8001000F1180190F84D
:10268C002490286868B10E8806F0C6F8042808D88B
:10269C00074606F00701484603F09EFA296841F800
:1026AC002700D8F8000060B106F0B6F8042808D866
:1026BC0005464846FF2103F08FFAD8F8001041F880
:1026CC002500002C18BF01242046BDE8F88300BF6C
:1026DC00941200502DE9FE4FD0E90085994614461E
:1026EC000F46834613B10020C9F8000074B105F001
:1026FC008FFF064698F8070058B198F8E80070B1BB
:10270C00304605F09DFF6FF008046CE06FF0090493
:10271C0069E0304605F094FF6FF00E0463E0002092
:10272C000121C8E93B74C8F8F440C8F8FC0088F8EB
:10273C00E810C8F83C0088F80D0088F80B00284613
:10274C00019506F0F1F8304605F07AFF08F1D00655
:10275C000DF1080A05F05CFF04463046514604F0C2
:10276C0075FED8F8F450D8F8FC10A842394438BF9C
:10277C00054602982A4606F0BBF93046294604F075
:10278C0001FCD8F8F400D8F8FC10401BC8F8F40091
:10279C004819C8F8FC00204605F052FF012D03DB58
:1027AC00D8F8F4000028D5D105F032FF0746D8F848
:1027BC00FC0050B1019806F0B7F8584601F0E0F86B
:1027CC00D8F8FC0010B1002402E000206FF00F04D8
:1027DC00B9F1000F18BFC9F80000002088F8E80014
:1027EC00384605F02DFF2046BDE8FE8F80B596B02B
:1027FC001490139113980130B8B1FFE71398A0B15E
:10280C00FFE702A8019006F0F1F8139A46F6693139
:10281C00C0F200010CAB04F091FF019806F0E6F851
:10282C000F9002208DF8400005E000200F9003204F
:10283C008DF84000FFE7149814300B9005F042FE21
:10284C0012901498408A002847D1FFE7139838B9A2
:10285C00FFE7129805F0FCFF00208DF8570048E0C8
:10286C0005F0B4FC119006F0A7F80E900E990CA888
:10287C00009048620E9802F0A5FC00990B9805F0A8
:10288C0013F89DF84000022807D1FFE70F9805F0D8
:10289C0057FC0F9800F03AFCFFE7129805F0D8FFB0
:1028AC00119804F0B7F805F00DFE12900F9830B1A6
:1028BC00FFE70F9805F054FF00200F90FFE70E99EB
:1028CC0000204862129805F0C3FF9DF840000028D4
:1028DC0018BF01208DF857000BE01498408A01387E
:1028EC0014994882129805F0B3FF01208DF8570017
:1028FC00FFE79DF8570016B080BD70472DE9F84FE3
:10290C003C4C3D4E3D4D42F62A294FF0010A4FF00A
:10291C00030B00274FF00508D4F83C01062833D8E8
:10292C00DFE800F00433183B203D4B000F20F06033
:10293C00C6F8109004F0EAF945F804AC55F8040C0C
:10294C008007FBD5C6F81CA094F8390190B1012082
:10295C00EF6210E02F60C4F83CB128688007FCD40B
:10296C000320DBE72F60C4F83C8128688007FCD487
:10297C000520D3E70320C6F800B0C4F83C012F6053
:10298C0029688907FCD4C9E7FEE70126022084F8F0
:10299C003A6104F0A3F82E6009E0022000E0032065
:1029AC0084F83A01002004F099F80120286004F121
:1029BC005000BDE8F84F05F013BE002045F8040C9C
:1029CC00286055F8040C8007FBD428688007FCD4D9
:1029DC000B480025012105600A4801600D2001F01B
:1029EC0067FB022004F08EFBC4F83C5184F83B5189
:1029FC00BDE8F88FD810002000400C4058600C4007
:102A0C003C500C4004800C4080B584B00390029183
:102A1C000298002860D1FFE705F0D8FB019005F083
:102A2C0051FD0090039890F82000012824D1FFE775
:102A3C00039805F0A1FB0398C06C05F0D2FC50B1D3
:102A4C00FFE70398826941F29041C2F20001C86825
:102A5C009043C860FFE70398406A60B1FFE70398B2
:102A6C00406AC06830B1FFE70398406AC06805F05F
:102A7C0077FEFFE7FFE7FFE7039890F820000228B6
:102A8C0015D1FFE70398406A80B1FFE70398406ACD
:102A9C0005F072FB0398406AC06830B1FFE70398F9
:102AAC00406AC06805F05CFEFFE7FFE7FFE70398AC
:102ABC0090F82000032804D1FFE7039805F05CFB95
:102ACC0003E0039803F072FEFFE7009805F0C0FEE8
:102ADC00019803F09FFFFFE70298012801D1FFE75F
:102AEC0015E00398006B013038B1FFE70398826A58
:102AFC00C16A006B04F0B8FDFFE70298022801D10F
:102B0C00FFE704E00298032801D1FFE7FFE704B0D8
:102B1C0080BD7047B0B50C46880722D4600758BFFB
:102B2C00B0BD354D0120A870042004F0A1FB334842
:102B3C000068006B8047E8602D48806BF0B16968D5
:102B4C00046961B1A1420AD094F82800400704D569
:102B5C00636A2046042100229847012060766C604D
:102B6C000DE0FEF7C7FF2248006CE0B3214844F0AB
:102B7C0002012830BDE8B04005F072BC6C6860689A
:102B8C001F4900780860022004F072FB102001F04D
:102B9C0087F9012028761B48807810B90D2001F0A8
:102BAC007FF96868416818488A680AB9C96821B110
:102BBC0000218160154940F8141C154907220A6050
:102BCC00016800210160426841601249124AE961C2
:102BDC000168114301601A2005F022FD1920BDE89F
:102BEC00B04005F01DBDBDE8B04002F02FBF00BFE6
:102BFC00FC13002098130020C81200208C01001038
:102C0C00D0210840D892000014100440510007064F
:102C1C00000004607122000002400040FEB5D0E9C3
:102C2C00005401A805F0C4FC95F834003649374A25
:102C3C00384E085C95F83510515C354A084395F8C8
:102C4C003610515C2A6B40EA0103316820684F68EA
:102C5C000299B847206840F2F272E1692E4B2F4F6F
:102C6C00426494F854209A5C94F85530FB5C1A43F7
:102C7C000129426311D10146D4E90A2351F8307F6E
:102C8C00FF2A27F4004718BF07F50047FF2B0F60FA
:102C9C0009D00A6842F4804208E0014651F8302F0E
:102CAC0022F400420A600A6822F480420A60C16A77
:102CBC0041F01001C162016B41F001010163E16B54
:102CCC0009B3A16BF9B1012105F03CFBD5F8580112
:102CDC00E16B40680068C162C0F8041591FAA1F17B
:102CEC007268B1FA81F15368022298477068A16B3F
:102CFC0002224368D5F8580191FAA1F1B1FA81F199
:102D0C00406800689847FEBD509300003691000063
:102D1C0038930000D0010010429300003D93000056
:102D2C002DE9F047A4B005F073FC33490A78012A69
:102D3C0004D124B0BDE8F04705F082BC4FF0010986
:102D4C0081F8009005F07CFCFFF7ACFB082001F04B
:102D5C00A7F821AC204605F075F9DFF8A0A0294AA8
:102D6C0010212346DAF80C002290254803F048F88D
:102D7C002548002501AE0478244890F80080474689
:102D8C00A74213D8DAF8000050F8271021F0FF0002
:102D9C0046F82700880707D4F8B201F0010105F0C6
:102DAC002FFC09FA07F005430137E9E718480560DD
:102DBC001848C16801F44001B1F5800F07D10068D3
:102DCC00000E56F8201041F0070146F8201012486A
:102DDC00A4EB0802042306EB880103EB820240EA11
:102DEC00880005F085FE0D482022016862F30D2154
:102DFC00016024B0BDE8F08759160020C89200008D
:102E0C0060100020896800006A920000699200003E
:102E1C00D0200240A84F005000100840003009405C
:102E2C0080B588B0DDF828C0069005910492039314
:102E3C000598362810DBFFE7FFE70A98059B6A46E2
:102E4C000021116049F2B002C0F2000203F004FE4E
:102E5C00FFE7012007905FE005980699C88141F2D1
:102E6C005440C2F20000406B059950F8210047F61F
:102E7C006501C0F20001884210D0FFE7FFE70A9815
:102E8C00059B6A460021116048F61572C0F20002DB
:102E9C0003F0E2FDFFE7012007903DE0059802F00A
:102EAC0019F90498069948600398406806990860D7
:102EBC0003980069013020B9FFE70699FF200873D9
:102ECC0004E00398006906990873FFE7069900204F
:102EDC0088600398007AC00720B1FFE706990120AB
:102EEC008860FFE70398007DC00730B1FFE70699C3
:102EFC00886840F002008860FFE706980A9901F0A4
:102F0C003BFD0290029820B1FFE702980230079037
:102F1C0002E000200790FFE7079808B080BD7047DB
:102F2C002DE9FE4F4FF4804005F092FBA0B1354CDB
:102F3C0035496068D1F8132009786FF39F5201F07E
:102F4C000401806842EA417101AA00F04FFC6068FC
:102F5C008168012004F0BCFF2E482C4F2C4D44F20C
:102F6C00020B00244FF0000A00F14009BAF1020FE5
:102F7C003CD055F82A80D8F80000A0B3D8F800004F
:102F8C00806905F065FB0646D8F800000023324640
:102F9C0004F04EFC16F00A0F1ED0D8F80000806921
:102FAC00B9686BEA00000840B860D8F80000C06946
:102FBC00396821EA000038601020D8F8001004F0BD
:102FCC0087FFD8F80010484604F069FD002044F053
:102FDC000204C8F8000006E02EB1D8F800000D4934
:102FEC0044F4804408650AF1010ABFE724B10A4899
:102FFC002146283005F034FA01F088FABDE8FE4F7E
:10300C00FDF7A8BDC8120020850300210C10044058
:10301C0008930000FC130020981300202DE9FC47B6
:10302C0006680446707A00286BD0D4F80490D6F861
:10303C005801D0F80480D9F83470204602F0D6FB41
:10304C00706F20B306F14C05284605F04EFD316F2C
:10305C00884221D2307902281ED0B06E002850D080
:10306C00204602F0C3FB346F284605F03EFD201AC3
:10307C00D6F868A0B46F7067284605F036FD0021BD
:10308C00F1740AEB040108440190706F0CE0B06E0F
:10309C0010B1306F0028D5D106F14C0001A904F015
:1030AC00D5F901217067F17458B30021B0F5806F28
:1030BC00B17384BF4FF480607067012301990144A0
:1030CC00013979601049B96043F6F07101EB0010D9
:1030DC000840B9680843B860D9F83C10D9F800002A
:1030EC0091FAA1F2B2FA82F203FA02F2D8F80030A5
:1030FC009A61D6F85821526812689162012105F044
:10310C002DF9BDE8FC8700BF0180000C80B588B0AC
:10311C00079007998868086200208DF8070041F233
:10312C003030C2F2000090F85E00C007002840D09A
:10313C00FFE741F23030C2F2000090F85C00C007AB
:10314C00B8BBFFE7012004F013FF0690069841F28C
:10315C003031C2F200018A68801A0590486D896886
:10316C00401A039005980399884221D8FFE7012063
:10317C008DF807000699079A93681944D16007994E
:10318C00087541F23030C2F20000406D0490049892
:10319C000699401A0290079880680299884206D2D4
:1031AC00FFE707998868C96804F0EEFDFFE7FFE7C1
:1031BC00FFE79DF80700C007E8B9FFE704F0D3FD6F
:1031CC000690069807998A681044C86007990120F0
:1031DC00087541F23030C2F2000090F85C00C00774
:1031EC0040B1FFE741F23031C2F20001012081F819
:1031FC005D00FFE7FFE708B080BD80B587B084466F
:10320C000998CDF814C00491ADF80E208DF80D304E
:10321C00ADF80A00BDF80E009DF80D10BDF80A209F
:10322C00083222F0030204325143884204DAFFE7E9
:10323C0001208DF81B004FE0BDF80A00083000F0AB
:10324C000300C0F104008DF80900049801900020DF
:10325C000090FFE700989DF80D1088422ADAFFE7EE
:10326C00019A0098BDF80A109DF8093019440831EC
:10327C0000FB0120049004990020087104994879FE
:10328C0000F0FC0048710499487900F0F300487193
:10329C00BDF80A000499C8800499BDF80A000844D6
:1032AC009DF80920104408300860FFE700980130B1
:1032BC000090CFE70198049908600198059908607F
:1032CC00059900204860019941F2CC02C2F200023B
:1032DC0011608DF81B00FFE79DF81B0007B080BD47
:1032EC0080B584B005F0EEF841F25440C2F2000013
:1032FC0043F60021C2F20101416140F20061C0F2CB
:10330C000001C161016A4163016A4EF60850CEF2B8
:10331C0000000160006840F20001C0F20001884228
:10332C002DD0FFE741F25440C2F20000016A029135
:10333C00406B019000200390FFE7039835281DDCBB
:10334C00FFE703980E280BDCFFE7039A40F200001E
:10335C00C0F2000050F82200029941F8220008E067
:10336C000199039A47F66500C0F2000041F822006B
:10337C00FFE7FFE7039801300390DEE7FFE74EF627
:10338C000C51CEF20001086820F47F400022C0F2FC
:10339C00FA52104408604EF62251CEF20001202061
:1033AC0008704EF61451CEF200014FF40070086014
:1033BC004EF63471CEF20001086820F040400860EF
:1033CC0004B080BD2DE9F84315460C46804601F04B
:1033DC0009FE2C4800212D4F01602B4881460068C6
:1033EC003868816927208847294E2A49306B084064
:1033FC003063B06F20F48070B0673868016B4FF4A5
:10340C00806088473868016B4FF481608847386862
:10341C00016B4FF4C06088471F48012101601F48B1
:10342C00C6F8804131600168890704D4691C08BF63
:10343C004FF04045C560D9F80000F0698007FCD515
:10344C00072003F03DFA0228FAD1B8F1000F13D18E
:10345C00134C386A8168204688470428F9D0012823
:10346C0004D1386A0321426820469047D6F81802E6
:10347C0020F00300C6F818023868806BBDE8F843EA
:10348C00004700BF0C4009402C200940B801001037
:10349C000C200840FFFFFEFE2820086010000940A9
:1034AC000040034088B00790069105920598079953
:1034BC00896A01390840049040B1FFE70798806A97
:1034CC000499411A059808440590FFE707982030A5
:1034DC00039006980290039800680190FFE7019909
:1034EC000020009041B1FFE70199029A002091421F
:1034FC0038BF01200090FFE70098C00730B1FFE70C
:10350C0001980390019800680190E8E701980299EE
:10351C000860059802994860029803990860019820
:10352C0098B1FFE7029805990844019988420BD19C
:10353C00FFE70198006802990860019842680299B7
:10354C00486810444860FFE7FFE70398079920316B
:10355C00884212D0FFE703984168084402998842D8
:10356C000BD1FFE702980068039908600298426843
:10357C000399486810444860FFE708B070477047EB
:10358C0070B52548066804F02BF924480025244C16
:10359C000560206C806C80472248006838B1224856
:1035AC000068B6F1FF3018BF304600F0D1FC1F4860
:1035BC0040F2391205601E48016862F31B4101603C
:1035CC001C48016801F44051B1F5805F06D10168D7
:1035DC00194A114001F5003202600160174D0126B5
:1035EC00EE612068016A142088471548016841F48F
:1035FC00E021016013482E60006800F44000B0F533
:10360C00000F03D1206C416C0F4888470F480168AC
:10361C000029FCD170BD00BF1C1300508404604213
:10362C00B001001080012843800520438C21084004
:10363C004820034028000940EFFFFCFC0000244315
:10364C0000200940B44F0050BD3786000C00684282
:10365C0070B5F8B1012858D1012005F035F90128D1
:10366C0053D02D4C94F8380100284ED12848294EBF
:10367C000569306810F4402F30D17DB304F0E8FBBD
:10368C00502005F01AFA0120A84704F1940004F028
:10369C00A7FF25E005F021FA1E48006810F4402F22
:1036AC000AD11B4804693CB11B48943004F0A0FFBC
:1036BC0004F0BEFB0020A047174C94F8380120B34F
:1036CC001648016821F0800101608021816003208F
:1036DC0003F018FD002084F8380116E005F001FA1B
:1036EC00012084F83801306810F4402F00D14DB916
:1036FC00207A800606D4094880218160016841F057
:10370C0080010160032003F0B3FD002070BD00BFF9
:10371C00A0920000B44F0050D81000209022084016
:10372C002DE9F84F1E4614460F46814604F070FFF3
:10373C00804604F0BDFB00284AD005462848DDF839
:10374C002CB004F055FFDFF89CA0274A0A9B4FF0E1
:10375C00FF31BAF854001A40023201306FF31F30B7
:10376C00AAF854000020AE6085F83240C5E9037910
:10377C00C5E90F100BF0200185F8440085F83800DE
:10378C006863C5E90800C5E906218022BAF854101F
:10379C00A5F85000C5E9120085F833202986397B3D
:1037AC0001F00F01022904D1012185F83810B96804
:1037BC00696389F8FC000AF13800294604F06FF9B6
:1037CC00DAF83800A84208BF02F040F92C8E01E06C
:1037DC004FF6FE74404604F033FF20B2BDE8F88F7C
:1037EC00400E0020FC130020FDEFFF9FF0B585B0CC
:1037FC000D4600211446CDE90311CDE9011101A9B3
:10380C00009104A903AA02ABFEF7D8FE029F002F79
:10381C00394618BF0121019E0140002E324618BFC7
:10382C0001221140002D10D411B3049840F22B2129
:10383C0005806FF39F5538462A4604F009FA039821
:10384C00314601F09FFF676010E0C9B104984FF05A
:10385C00FF316FF39F552A46018030462B2104F02F
:10386C00F7F90398314602F0BFF8666015201EE0A8
:10387C00C8B104984FF6FF720188914214D110E040
:10388C0078B16FF39F5503982B212A4604F0E0F989
:10389C00FF2806D004984FF0FF310180142065609A
:1038AC0005E0032005E00498058065801020208049
:1038BC00832005B0F0BD80B588B0079007980690BE
:1038CC0004F084FC01900698483005F094F804F05C
:1038DC0088FD20B1FFE7019803F09CF84EE00198B9
:1038EC0003F098F841F27C00C2F2000005F08DF86C
:1038FC004FF0FF31FEF77AFF0698483005F07BF861
:10390C0005F02AF80590FFE70598009006984830D6
:10391C0005F071F801460098884226D0FFE705981B
:10392C0002900298006903900298806804900598B0
:10393C0005F018F80590029804F01EFC039804F0AA
:10394C001BFC0498006850B1FFE70298C06830B1C6
:10395C00FFE7049801680298C0688847FFE703995D
:10396C0000201C2203F080FECEE741F27C00C2F264
:10397C00000005F04AF800F031FFFFE708B080BD09
:10398C00F8B505680446D5F8F80000B1F8BD6879BB
:10399C006668022807D105F1D000694604F0B0F939
:1039AC00C5F8F80009E0D5F8EC10D5F8FC20D5F8EE
:1039BC00F4001144C5F8F80000910028E6D03168F5
:1039CC008A6B22F400628A6395F84410C9060AD502
:1039DC002F6C47B1297A31B9AB6C204610210022EB
:1039EC00B847D5F8F800B0F5806F84BF4FF480600D
:1039FC00C5F8F8000099336B01444A1E3168B66B68
:103A0C001A600E4A9A6043F6F07202EB00101040F6
:103A1C009A6810439860D5F858014068006886622F
:103A2C000846022104F09AFC287A0028AED12046E0
:103A3C000121012603F0AFFF2E72F8BD018000C0FA
:103A4C0080B588B08DF81F0006914FF0FF300590BF
:103A5C0041F23030C2F200000490049804F07CFF74
:103A6C000390039804F084FF0290FFE703980299F7
:103A7C00884242D0FFE703980190039804F072FF4C
:103A8C0003900198007DC007B0B3FFE79DF81F00BD
:103A9C00C007E8B1FFE70198C0680699884216D1C3
:103AAC00FFE70198006920B9FFE70199002008752C
:103ABC0008E00199C8680A691044C860019908694E
:103ACC000862FFE701988169C0698847FFE7FFE753
:103ADC000198007DC00770B1FFE70198C068069996
:103AEC00401A009000980599884203D2FFE700988D
:103AFC000590FFE7FFE7FFE7B8E7059808B080BD42
:103B0C0080B586B005900598002857D1FFE741F2A3
:103B1C004850C2F20000C068002848D0FFE704F00B
:103B2C003FFC04F0CFFC41F24851C2F2000188691D
:103B3C000490C868C969019104F03DFC01460198E4
:103B4C0000EBC1000390FFE70398049988422DD93C
:103B5C00FFE7039804F029F90290039804F041FC64
:103B6C0050B1FFE70298426A41F24851C2F200019B
:103B7C00C8689043C860FFE7029801F0E7FA41F289
:103B8C004850C2F20000C06808B9FFE70EE041F2ED
:103B9C004851C2F20001C868C969009104F00BFCDD
:103BAC000146009800EBC1000390CDE7FFE741F21E
:103BBC004851C2F2000100200872FFE706B080BD38
:103BCC002DE9FC412A4D95F86100002844D00024D1
:103BDC000026602C40D095F86100F040C00702D15F
:103BEC0020340136F5E7112095F8618000FA06F7CC
:103BFC0004F00EFD95F86110B94385F8611004F0DE
:103C0C001FFD281928D0817A31B31021194A2C595B
:103C1C00B14011EA080190F9091052F82180466868
:103C2C00CFB209D001F01AFA002079B200224FF07D
:103C3C000073009020460EE0017A022902D1C17C6B
:103C4C00C90601D401F00AFACDF8008079B22046F9
:103C5C0000224FF00063B04795F8610028B1064888
:103C6C000021BDE8FC4104F0FBBBBDE8FC8100BFBA
:103C7C00200D002094300440C80E002080B586B082
:103C8C00049003910498039B47F27371C0F20001F6
:103C9C0046F6A932C0F2000200F0B2FA0499C861EB
:103CAC000498C06918B9FFE70120059041E0049918
:103CBC00012081F820000499002048620498406992
:103CCC00B0F1FF3F0FDCFFE70499002088610499F5
:103CDC0041F29040C2F200002C30C8640499C86CC8
:103CEC0003F078FA22E00498416901208840049995
:103CFC00886141F29040C2F20000006A049949695F
:103D0C0000EBC100009000980499C86404F05EFABE
:103D1C00029004F0D7FB0190049804F084F9019808
:103D2C0004F096FD029802F075FEFFE70020059066
:103D3C00FFE7059806B080BD80B586B0049003916E
:103D4C0002920193049804F02BFD029800680499E8
:103D5C000861039804994861029840680499886145
:103D6C00029880680499C8610298C068013020B933
:103D7C00FFE704990520086204E00298C0680499E2
:103D8C000862FFE704990A6A01209040486204998E
:103D9C00002081F8280002980069049908630298B1
:103DAC0000690499C86241F24850C2F20000C0692F
:103DBC0004990A6A00EBC20048630498019904F064
:103DCC00E3FD0090009820B1FFE7009802300590C9
:103DDC000BE0049800F1080141F24850C2F20000D7
:103DEC0003F0F8F900200590FFE7059806B080BDB8
:103DFC002DE9F84FFF2831D0264B0C4605464FF4E1
:103E0C00BE21AF0004F0020843EA80004158C9B259
:103E1C00914227D121489A464FEA142947EA0006D5
:103E2C00834604F0F5FB0BF10101220C86F800909F
:103E3C0039430A7046F00201220E0A7004F000FCAD
:103E4C00B8F1000F02BF45EA0A0004F0010101704D
:103E5C001148012181EA5801384316E04FF0FF3038
:103E6C00BDE8F88F00F5BE2024F0FF0162B9B8F16F
:103E7C00000F02BF2B4304F001041C70064B0124FD
:103E8C0084EA58043B431C60114301600020BDE8E8
:103E9C00F88F00BF00200240001A44420110084075
:103EAC002DE9F041254E0546371804F0B1FB0446C8
:103EBC0097F84A01411C87F84A1128B1204604F0B2
:103ECC00BFFB0020BDE8F081DFF8748018F8257086
:103EDC0007F03F00142898BFFFF7E2FF08EB8500BE
:103EEC00458878B2B0F1FF3F0CDD78061FD4154839
:103EFC000068416928468847284602F003FD0128DE
:103F0C00FAD1DBE70F4E3068C16928468847306824
:103F1C00416A284688473068C16A284688470A485B
:103F2C0001210160094801688907FCD5C6E706EB49
:103F3C008500D0F8601101208847BFE7D810002019
:103F4C0090910000B801001028200860282008403B
:103F5C00F8B505462248234E4168890705D4016807
:103F6C00F02242EA114186F84D101F494FF0012210
:103F7C001F4F0A601D490988396809688468204602
:103F8C008847A00105D4E00103D5307840F0020049
:103F9C0030703868214642682846904703F00CFC84
:103FAC001448154A0068C0F305311170C1054FF073
:103FBC00130158BF232140237354382101EA901078
:103FCC0000F56050A2F85C0038688168204688478C
:103FDC00022002F04BFF094801210160F8BD00BF2F
:103FEC00AC4F00500962084004A40C4000A00C40E7
:103FFC00F00100100C1400500EB00C409404604200
:10400C008B4208BF824207D9009A002A01D0106067
:10401C005160002100207047002B08BF002A10D1EE
:10402C00009A002A01D01060516002000B000021A0
:10403C000020002B08BF002A1CBFC943C043FEF759
:10404C006EBFF0B51C4615460B46024600200021FB
:10405C00B4FA84F6202E04BFB5FA85F62036B3FAEE
:10406C0083F7202F04BFB2FA82F72037F61BB6F184
:10407C00200727BF05FA07F400257F42B4403EBF56
:10408C0025FA07F73C43B540A34208BFAA4201D327
:10409C00521BA341404149416D0845EAC47564086F
:1040AC00761EF1D5059F002F01D03A607B60F0BDE4
:1040BC00F8B5254F05463E1804F0AAFA044696F8C2
:1040CC004A01013886F84A01000637D11F4810F919
:1040DC00251000EB85004588CEB2B1F1FF3F0CDD19
:1040EC0070061FD41A4800688169284688472846FC
:1040FC0002F0E6FB0228FAD11AE0154F3868016A83
:10410C00284688473868816A284688473868016B92
:10411C00284688470F48012101600F48016889072C
:10412C00FCD505E007EB8500D0F86011002088472E
:10413C0006F03F00142898BFFFF7BAFF204604F0A2
:10414C007FFA0020F8BD00BFD8100020909100002D
:10415C00B8010010282008602820084010B586B04F
:10416C000146427E8068002343F606040593CDE9A0
:10417C0003330293438003881C1B022C10D3B3F52A
:10418C00C15F03D040F60204A34212D1038A002A75
:10419C0023F4FE6312BF038243F43472028208E0FC
:1041AC00038B23F4FE630AB1038302E043F43472FD
:1041BC00028300224A7602A9009105A904AA03AB46
:1041CC00FEF7FCF928B105984FF6FF71008888427C
:1041DC000ED0049C0299204601F0D4FA07480168DD
:1041EC0021B1204606B0BDE81040084706B010BD0E
:1041FC00049C0299204601F0F7FBEFE7141600200F
:10420C00B0B58CB00B900A91099208930B9804905E
:10421C0049F26D30C0F200000078C007A0B1FFE792
:10422C000498C06A05900498806A0690FFE7069887
:10423C0048B1FFE70599481C0590BE200870069808
:10424C0001380690F3E70FE049F26C30C0F2000041
:10425C000078C00738B1FFE70498C06A059005994B
:10426C00BE200870FFE7FFE7DDF810E0DEF828104D
:10427C00DEF82C00DEF83420DEF838400439099BD7
:10428C00DDF828C0DEF83C50EE46CEF80850CEF8EB
:10429C000440CEF800C0FCF72AFE079007980CB03B
:1042AC00B0BD70472DE9F84F002480460021002254
:1042BC000460684600F0D8FA204DDFF884A08146EF
:1042CC004FF0FF374FF0190B0020602C1ED02A192D
:1042DC00917AB9B1107A022816D0DAF80400418B21
:1042EC000069084495F8621011FB0B01506903F04A
:1042FC007FF8064604F0DBFAB6FBF0F0B84238BFA4
:10430C00074601202034E0E70120002709EA0001DC
:10431C00012904D10099B94238BF0F4606E0B9F122
:10432C00000F01D0009F01E0C10701D0C8F8007058
:10433C0040EA090000F00100BDE8F88F200D0020D4
:10434C00C812002080B586B0FFE741F29041C2F25E
:10435C00000100200874FFE741F29040C2F2000017
:10436C00C06818B9FFE703F03CFBF5E741F2904059
:10437C00C2F200000190016A0291C06804F01BF8BF
:10438C0001990246029800EBC20005900598C96994
:10439C00884218D9FFE741F29041C2F20001009126
:1043AC00886904900598C861059804F0D5FA01460F
:1043BC00009881618069039004981C3003991C312A
:1043CC0003F0AEFAFFE7FFE741F29040C2F20000C3
:1043DC00007CC0070028B8D1FFE706B080BDF8B557
:1043EC000446FD201D468DF8030020461E6832460B
:1043FC0000F041F810B101208DF803009DF8030086
:10440C00FD2815D1A6B1E068007B00F00F00022852
:10441C000ED13768204631463A4600F02CF820B9C8
:10442C00002F3E46F5D1002602E002208DF8030055
:10443C009DF80300FD2804D1E06B10B104208DF829
:10444C0003009DF80370042F0FD0022F06D0012F0C
:10445C000FD12846214603F034FB0AE0326822B122
:10446C002846214603F084FA03E02846214603F04F
:10447C0016FB78B2F8BD70B5B2FA82F3B1FA81F4DA
:10448C005B096409B0B312B190F844506DB389B1B3
:10449C0091F844406CB3446B0E69096C056989084A
:1044AC00A408AE4214BFED6800252944611AB1F18D
:1044BC00704F22DAB2B1D168097B01F00F010229E9
:1044CC0015D1516B0569006C146980088908A542E7
:1044DC0014BFE26800221044081AB0F1704F01DBDF
:1044EC00012804DB0124012304E0002302E0012461
:1044FC0000E0002404EA030070BD00240029C8BFBA
:10450C000124002AF6D00129D5DAF3E72DE9F84F7A
:10451C00204E214FDFF8848000254FF0010B4FF027
:10452C0002094FF0110A602D08BFBDE8F88F7C1905
:10453C002ED0A07A01282BD1607A41B20BFA00F070
:10454C001131C0B20BFA01F1CA43326072681143E7
:10455C00716003F0BDFD04F11000002103F016F8AA
:10456C00812809D1A06920B1002103F00FF881281E
:10457C0002D184F80A900BE0607A97F861100AFA7D
:10458C0000F00843002187F86100404603F068FF03
:10459C002035C8E708100440200D0020C80E00206C
:1045AC0080B584B00390029102980068082805D861
:1045BC00FFE7039908208862009007E002980068E2
:1045CC0003998862029800680090FFE7029840689F
:1045DC000399C86102988068039948620398C0697E
:1045EC00009901390840019078B1FFE700980199D2
:1045FC00401A0190019A0399C8691044C861019A44
:10460C000399486A801A4862FFE70399486A009A3E
:10461C00B0FBF2F050434862039800F1100141F2F4
:10462C002C60C2F2000002F0D5FD039803F08AFB67
:10463C0004B080BD80B5A2B02190209141F25440CD
:10464C00C2F2000001210171806838B9FFE741F224
:10465C005441C2F2000102A88860FFE72198FCF7E0
:10466C0083F8032003F02AFB4EF60450CEF2000030
:10467C000068C0B2019001980E2810D8FFE7FFE740
:10468C00019B2198806B6946086048F6F452C0F291
:10469C0000020021084602F0DFF9FFE70FE0FFE718
:1046AC00019B2198806B6946086048F69E72C0F2A7
:1046BC0000020021084602F0CFF9FFE7FFE722B025
:1046CC0080BD80B586B041F24851C2F200018869C4
:1046DC000590C868C969029103F06DFE0146029805
:1046EC0000EBC1000490FFE7049803F05EFB03901D
:1046FC00049803F076FE50B1FFE70398426A41F24A
:10470C004851C2F20001C8689043C860FFE70398A3
:10471C0000F01CFD41F24850C2F20000C06808B91C
:10472C00FFE713E041F24851C2F20001C868C969C1
:10473C00019103F040FE0146019800EBC10004908A
:10474C00FFE7049805998842CED8FFE706B080BDF4
:10475C0080B588B0069005910492039341F25440C1
:10476C00C2F20000406B059950F8210047F6650134
:10477C00C0F20001884203D0FFE7002007902AE036
:10478C0006980599049A039B41F2FC5CC2F2000C5A
:10479C00EE46CEF800C001F08BFB0190019818B9E1
:1047AC00FFE70020079016E041F25440C2F20000EF
:1047BC00406B059950F8210047F66501C0F20001E5
:1047CC00884203D1FFE70020079004E0069802908E
:1047DC0002980790FFE7079808B080BD80B586B0B7
:1047EC00059005981430019003F0F0FC049003F050
:1047FC0069FE0390019803F0F4FDB0B1FFE7059852
:10480C00007CC00720B1FFE705990120488205E034
:10481C000598408A013005994882FFE7039804F017
:10482C0017F8049802F0F6F81BE0019803F0BDFAB3
:10483C0002900299012008740298C06828B1FFE721
:10484C000298C06804F012F8FFE702988068039998
:10485C0001F0CFFF039803F0FBFF049802F0DAF8A5
:10486C00FFE706B080BD704710B504461E4849B13D
:10487C0038300068B0B1C3681B7B03F00F03022B08
:10488C00F7D101E0806B68B102B11060C268137B94
:10489C0003F00F03022B08D151B101698A8DC9684D
:1048AC00114415E0002100201CE00120002119E03A
:1048BC0012880169A2F60302012A4A8B8CBF09698E
:1048CC00496919231144094A92F8622012FB031119
:1048DC00406B02F08DFD206003F0E9FF2168B1FB15
:1048EC00F0F10120216010BDFC130020200D0020F0
:1048FC002DE9F84F07461E4815460E46009300F169
:10490C0038094C4624680CB1B442FBD14FF0000A74
:10491C0000F1400B44B32069D4F80080B84220D198
:10492C00204600224FF0805302F082FF009870B1B5
:10493C00204600224FF0807302F07AFF30690D4957
:10494C00086291F8240040F0010081F824004846E8
:10495C00214602F01DFF5846214603F0A0F80AF14B
:10496C00010A002D4446D5D15046BDE8F88F00BF52
:10497C00FC1300209813002080B584B003900291A2
:10498C000398B0F90E0001900398007A8007002874
:10499C0005D5FFE70398007B1F280BD8FFE7039989
:1049AC00B1F90E00496802F0C3FC0399C889404272
:1049BC00C88112E041F25440C2F20000406A0090FB
:1049CC0003980099019A41F82200019842F295311E
:1049DC00C0F2000102F0ACFCFFE701980399097BDF
:1049EC0002F0D0F90398007AC00720B1FFE70198D4
:1049FC0000F047FDFFE703990020886004B080BDFC
:104A0C0080B588B00790069105920493049804F041
:104A1C0006F88DF80B00079838B9FFE741F254609F
:104A2C00C2F2000000680790FFE7059820B9FFE785
:104A3C0004F068F80590FFE70798D0F800C00699D5
:104A4C00059A049BE04703900398C8B9FFE79DF8CB
:104A5C000B00C00728B9FFE7049803F0E0FF78B912
:104A6C00FFE7FFE70498079B06996A46116049F235
:104A7C002702C0F20002002101F0EEFFFFE7FFE782
:104A8C00039808B080BD84B003908DF80B1041F2F0
:104A9C005440C2F20000C169039A51604069039905
:104AAC00886003988068019001980078BE3818BF20
:104ABC0001208DF803009DF80B00C007D0B1FFE773
:104ACC009DF80300C007A8B9FFE7FFE70198013084
:104ADC000190FFE701980078BE28F7D0FFE7039814
:104AEC00406801994B1E019303998A68D21A1044AD
:104AFC00086003E0039900200860FFE79DF80300BD
:104B0C0000F0010004B0704770B50568D5F8F810D6
:104B1C0031B3D5F8582144685668A16B20683268C7
:104B2C00D162022103F00EFCD5F85801A16B154A95
:104B3C0040680068C0F8041591FAA1F11268306859
:104B4C00B1FA81F1926990470446D5F8F800011B3F
:104B5C006879022806D105F1D00002F060FC0BE068
:104B6C0000240CE0D5F8F400D5F8FC200A44401AD7
:104B7C00C5F8FC20C5F8F4000020C5F8F800204664
:104B8C0070BD00BFD401001080B58CB000200B901C
:104B9C0003F03DFCFEF7C4F805A8019002F0B9FD46
:104BAC000198012104910291029902F01BFD0390DE
:104BBC00039810B1FFE7FFE7FEE705A8009004A9F2
:104BCC0002F00CF800984FF4036103F08FFC0146DF
:104BDC00039808430390039810B1FFE7FFE7FEE743
:104BEC0040F63D52C0F200020AA805A90023FCF7CA
:104BFC00D9FE0390039810B1FFE7FFE7FEE703F03F
:104C0C00CFFC00200CB080BD80B584B08DF80F00B7
:104C1C0014200021029103F0F3FC02988DF80E0091
:104C2C00FFE79DF80E0007281FDCFFE70A20019024
:104C3C00002103F0E5FC9DF80F009DF80E10C1F16A
:104C4C000701C84000F00101092003F0D9FC0198CC
:104C5C00012103F0D5FC082003F02FFFFFE79DF89E
:104C6C000E0001308DF80E00DBE70A20002103F066
:104C7C00C7FC1420012103F0C3FC4FF42F7003F088
:104C8C001CFF04B080BD80B58CB00A9009910892CD
:104C9C00089838B9FFE70A980999002202F0FCF944
:104CAC00079028E00898806849F26031C0F2000152
:104CBC000968884208D3FFE708988068013018B16A
:104CCC00FFE700200B9019E002A8019003F062FAB4
:104CDC00019A089800680390089840680490089816
:104CEC00C06806900898806805900A98099902F0A7
:104CFC00D3F90790FFE707980B90FFE70B980CB0E0
:104D0C0080BD80B584B0039003F00AFD0290039837
:104D1C00029908640120694601F0A4FAFFE70298A1
:104D2C00406C30B1FFE70298406C012102F0DCFCD2
:104D3C00F5E70298FEF7BFFD0298006B38B9FFE764
:104D4C000298103003F061FEFFF748FD0FE003F00E
:104D5C003DFA019041F25061C2F200010868029ADA
:104D6C00106002980860019801F054FEFFE7029869
:104D7C00C0684FF0FF31FDF7DBF904B080BD80B5A2
:104D8C0088B0079000208DF80B0007980390012045
:104D9C0001F00AF80398036C426C816DC06DC91860
:104DAC00504104910590DDF812000190BDF81400FB
:104DBC00049A039BB3F854101B6DD21A884104D289
:104DCC00FFE701208DF80B00FFE7039801999DF890
:104DDC000B2002F0010200F01BFB0399886DCA6DD9
:104DEC004A6508650498059A0399CA65886503990C
:104DFC008869C969884708B080BD80B586B041F222
:104E0C004850C2F2000000908069059003F05AFBF4
:104E1C0000990390C868C969019103F0CCFA014666
:104E2C00019800EBC100049004980599884216D9AA
:104E3C00FFE703F0CBF9029044F2CF60C0F2000020
:104E4C0003F0D3F841F24851C2F20001002008727D
:104E5C00039803F0FDFC029801F0DCFD09E041F23F
:104E6C004851C2F2000100200872039803F0F0FCD4
:104E7C00FFE706B080BD80B58AB009900891079213
:104E8C00069301200490039003F01CFB03F09EF9A1
:104E9C00049003F08DF90390002002F00FFF8DF8C1
:104EAC0017004EF60450CEF200000068C0B202901B
:104EBC0041F25440C2F20000406A019001980299FC
:104ECC0050F82100069009980699886003F068FA5A
:104EDC00069908684968884703F0F4FA9DF81700AA
:104EEC0002F0ECFE0499039800EB01200AB080BD9F
:104EFC0080B58CB041F25A60C2F200000078C00755
:104F0C0008B1FFE72FE041F25A61C2F20001012023
:104F1C000090087003A8019002F0BEFE0098019A60
:104F2C000023069340F21061C2F2000107914FF486
:104F3C00007108918DF82C0049F24C20C0F2000051
:104F4C00039040F6E850C2F20000029048F28D71D6
:104F5C00C0F2000101F00CFB029841F29041C2F248
:104F6C0000014863FFE70CB080BD70471A481B4A2C
:104F7C00D0F8841000681140194A914211D1C0F345
:104F8C000332C0F34061082A0ED0092A11D00F2A2F
:104F9C0007D1020213D400F08072A9B1A2B1112082
:104FAC0000E0FF2040B270470A20002908BF0C2007
:104FBC00F8E74FF0FF30002908BF0920F2E70E2078
:104FCC00002908BF0D20EDE70B20002A18BF102088
:104FDC00002918BF0F20E5E79412005000F0FF0FD6
:104FEC000010B40B10B517480168890726D4174870
:104FFC000468A00221D41648006800688047C0F1FC
:10500C003E000722C1100729B8BFC210012000EBD7
:10501C0024718A42D8BF0A460E490968C1F303219C
:10502C00891A0F29A8BF0F210129D8BF014641F0C9
:10503C00F000094981F84D00087810BD0249C160A3
:10504C0010BD00BF10000940FD000040B44F0050DF
:10505C00EC0100100C1300500D620840F8B5054629
:10506C0003F0D6FA0446A87A50B36F7A012602F000
:10507C003FFF697A48B1154A48B21130536806FAB5
:10508C0000F08343C0435360106006FA01F31049EB
:10509C00002206FA07F02A72AA72C5E90422AA6154
:1050AC00C5E9002291F8605091F862202B4381F8F9
:1050BC00603012B1013A81F86220C0B202F03CF8C3
:1050CC002046BDE8F84003F0BBBA00BF081004400E
:1050DC00200D002084B00390039810281ED3FFE706
:1050EC0003981038400901900398103800F01F0104
:1050FC0001208840009001994EF20010CEF2000081
:10510C0050F821000099084002900098019A4EF244
:10511C008011CEF2000141F8220014E003980F2810
:10512C000DD1FFE74EF21001CEF20001086800F03D
:10513C0002000290086820F00200086002E00020E3
:10514C000290FFE7FFE7029804B0704780B588B083
:10515C00079041F24851C2F2000101910869069092
:10516C0048690590886904900798406B8861079896
:10517C0048610798006B0861079AD06A1063079A18
:10518C00002082F8280008720120029002F096FD9F
:10519C008DF80F0003F004F907994A698869C96909
:1051AC00904703F08FF99DF80F0002F087FD0199ED
:1051BC0002980872049888610598486106980861FD
:1051CC0008B080BD80B584B003900398C06C029089
:1051DC0041F29040C2F20000C068019003988069CF
:1051EC000090039802F0C8FF029803F0FAF848B157
:1051FC00FFE701980099884341F29041C2F2000107
:10520C00C860FFE741F29040C2F200008069039948
:10521C00884207D1FFE741F29041C2F20001002021
:10522C00C861FFE70399022081F8200041F2904108
:10523C00C2F200010120087404B080BD80B59AB0A0
:10524C0003F040F902A81890FFE741F29040C2F237
:10525C000000C06818B9FFE702F0C3FBF5E741F2A4
:10526C009040C2F200000190016A0091C06803F006
:10527C00A2F801990246009800EBC2001990199807
:10528C00C861199803F068FB0199886100200874C3
:10529C00022002F013FD03F083F803F013F902F07F
:1052AC00B3FE019918981C3089691C3102F038FB47
:1052BC001AB080BDF8B5054616484BF2F521174ECD
:1052CC00006800FB01F714483C0A006800F4402019
:1052DC00B0F5802F10D11248006880030CD4F06810
:1052EC000068804701F0F4FC3168C9688847C01039
:1052FC00390B484304EBE0342DB90A48006820F020
:10530C007F40204444083069416C2046BDE8F84099
:10531C00084700BF08400C40B44F0050E00100109B
:10532C008C13005010200940F8B5164F1648BD6C70
:10533C0003F096F90446154801680668214011F0FF
:10534C00200318BF002D0AD0284600223D6502F02C
:10535C006FFA0F484FF48041283003F081F804EACB
:10536C00060010F4602008BFF8BD0A4991F86120CE
:10537C0042EA504081F8610007480021BDE8F8403E
:10538C0003F06EB8FC13002020000E000C1004403B
:10539C0098130020200D0020C80E002080B584B08A
:1053AC00039002910398406A0299086002990020C8
:1053BC0048600299886040F6B870C2F2000001F0B3
:1053CC00ADFB01900398006A0090FFE70098B0B124
:1053DC00FFE70098426802994868104448600298B8
:1053EC00806800994968884205D2FFE700984068B8
:1053FC0002998860FFE7009800680090E6E7019941
:10540C0040F6B870C2F2000002F08BFC04B080BD14
:10541C0080B586B0059004918DF80F2003F0E7F964
:10542C008DF8070003F037FA029004980299401A9D
:10543C00B0F1004F04D9FFE702980630049012E057
:10544C0002980499401A063000280BD4FFE7049800
:10545C0002990631884204D2FFE702980630049084
:10546C00FFE7FFE7FFE70499012000F0D1FD9DF86D
:10547C000700C00718B9FFE703F0C0F9FFE706B053
:10548C0080BD84B00390039810281AD3FFE70398CB
:10549C001038400901900398103800F01F010120CA
:1054AC008840009001984EF20011CEF2000151F8A4
:1054BC002000009A104002900098019A41F82200B6
:1054CC0014E003980F280DD1FFE74EF21001CEF235
:1054DC000001086800F002000290086840F0020029
:1054EC00086002E000200290FFE7FFE7029804B09A
:1054FC007047F0B540F6FF7C10F8013B0024082CF7
:10550C00FAD00646DF0716F8015B0DD1467806F097
:10551C000F070337122F0DD190F90220D7B2B2F139
:10552C00FF3F09DD03300DE001F8015B304601342B
:10553C005B08E4E7023006E0C27807F07F0704302E
:10554C0047EAC2171237320942EA0515654508BF0A
:10555C00F0BDED43002FEAD04A5D013F0A700131E6
:10556C00F8E780B586B041F2CC40C2F2000090F86A
:10557C002800C00708B1FFE728E041F2CC41C2F295
:10558C000001012081F8280041F67001C2F20001EF
:10559C00059145F67000C2F20000401A049002F02A
:1055AC00C9FF01A8009002F0BCFF00990598029079
:1055BC000498039040F66470C2F2000000F0D0FC36
:1055CC0041F25461C2F200010860FFE706B080BDF1
:1055DC0080B586B001F012FC1420019046F2014116
:1055EC00C2F2000103F066FA0A20029046F2004172
:1055FC00C2F20001009103F05DFA009909200390BA
:10560C0003F058FA0820049042F20201C2F20001A1
:10561C0003F050FAB9208DF817009DF81700FFF72A
:10562C00F3FA019801F036FB029801F033FB039872
:10563C0001F030FB049801F02DFB06B080BD80B565
:10564C0088B041F23030C2F2000090F86500C0071B
:10565C0008B1FFE728E041F23030C2F200000290BE
:10566C00012180F86510002102F0B0FE00F0A4FCCE
:10567C0003A8019002F08EFD019A02980521069173
:10568C00103041F6C961C0F2000141F2FC53C2F284
:10569C00000301F068F80299C86400F06DFA03F099
:1056AC004FF802998865FFE708B080BD70B50546D4
:1056BC0002F0AEFF174E044696F82400A84386F875
:1056CC002400306820B1B83002F082FF054600E0BB
:1056DC000025706818B1B83002F07AFF054396F8CF
:1056EC00240030B92DB9306A18B190F82810890708
:1056FC0004D42046BDE8704002F0A2BF456A2046A3
:10570C0002F09EFF306A022100220024A847346276
:10571C0070BD00BF98130020B0B5174C60682168AD
:10572C0001EA000521EA0002680622601DD5134833
:10573C00006800F44000B0F5000F03D11048006879
:10574C0001F0C6FC042003F0BFF8811E022905D22B
:10575C0001F0FCFB022001F0D5FC03E0012808BF9E
:10576C0001F0F4FB202001F0CBFD280648BF00F02F
:10577C0067FEA560B0BD00BF90220840B44F00503A
:10578C003C16002089B36FF0C0020B0E02EA8112A6
:10579C00202B05D0212B05D0A02B05D1302118E0D2
:1057AC00102116E0202114E0B1F1807F01D24021BC
:1057BC000FE0102B05D0112B05D0402B05D17021FB
:1057CC0007E0502105E0602103E09021502B08BF39
:1057DC008021114341F00F0104C8531C18BF8A42A9
:1057EC00FAD14FF0FF3140F8041C704770B50468D3
:1057FC00616F59B3D4F8582145685668E96B28682D
:10580C003268D162012102F09DFDD4F85801E96B98
:10581C000F4A40680068C0F8041591FAA1F11268AB
:10582C003068B1FA81F192699047616F091AE07C96
:10583C0020B104F14C0001F0A5FB05E0206FA26F34
:10584C00401A20675018A0670020606770BD00BF29
:10585C00D401001080B584B0039002F033FE0190A7
:10586C00039841690020B0EB914F03D1FFE704206E
:10587C00029003E00398C08A0290FFE703F00BF854
:10588C0001460298084402900120009000F08CFA26
:10589C000098029900F0BCFB40F28410C1F20000A9
:1058AC0000680268002023219047009800F05CFCFF
:1058BC00019802F0CDFF04B080BD80B584B0039098
:1058CC0002910298012801D1FFE727E00398B0F973
:1058DC000E00B0F1FF3F06DCFFE70398B0F90E00B5
:1058EC004042019004E00398B0F90E000190FFE7EC
:1058FC000198FFF7EFFB019847F66501C0F2000134
:10590C0001F016FD41F25440C2F20000406A0090D2
:10591C000099019A002041F82200FFE704B080BDF5
:10592C00B0B5134D0124E86B0168012088470128AC
:10593C001BD028683C21012200230024C5680D4897
:10594C00A84790B101F0E6FA0B480C490068D1E980
:10595C0000238860C01A0A4BA2EB92025843B2EBA8
:10596C00104F98BF020C01240A602046B0BD00BF46
:10597C00A401001000A00C4030200940C0150020EC
:10598C0040420F00B0B51448144D807B95F8391186
:10599C00084306D002F03CFE95F83B1121B102F011
:1059AC004FFE00242046B0BD012485F83B4102F097
:1059BC0047FE022001F05CFC0D20FEF771FA08484E
:1059CC0001680029EED1074940220A604A60002193
:1059DC0085F83A11C461E4E7A0920000D8100020C9
:1059EC0004800C4038500C4079B36FF0C0020B0EA1
:1059FC0002EA8112202B05D0212B05D0A02B05D13A
:105A0C00302118E0102116E0202114E0B1F1807F44
:105A1C0001D240210FE0102B05D0112B05D0402BCB
:105A2C0005D1702107E0502105E0602103E09021B1
:105A3C00502B08BF8021114341F00F0104C8531CA7
:105A4C0018BF8A42FAD140F8041C70471CB515489F
:105A5C00017E022904D11920BDE81C4002F0E8BDEA
:105A6C00017E01291DD0007E04281AD002F0D0FD41
:105A7C00044601A8FEF716FC28B101990A4831B179
:105A8C0002F024FC0AE0084802F0B2FD06E002F045
:105A9C00AFFD06480421283002F0E2FC204602F05B
:105AAC00CFFD1CBDC8120020840E002098130020CE
:105ABC00B0B54FF0FF3002F0CBFD104D044610494D
:105ACC00E86988420DD10F480F49002201F0D5FF3B
